:020000040800F2
:1000000000300020CD210008112100081321000834
:100010001521000817210008192100080000000020
:100020000000000000000000000000001B2100088C
:100030001D210008000000001F21000821210008E8
:100040001D2200081D2200081D2200081D22000894
:100050001D2200081D2200081D2200081D22000884
:100060001D2200081D2200081D2200081D22000874
:100070001D2200081D2200081D2200081D22000864
:100080001D2200081D2200081D2200081D22000854
:100090001D2200081D2200081D2200081D22000844
:1000A0001D2200081D2200081D2200081D22000834
:1000B0001D2200081D220008000000001D2200086B
:1000C0001D22000800000000000000001D220008A2
:1000D000000000001D2200081D2200081D2200084B
:1000E0001D2200081D220008000000000000000082
:1000F0000000000000000000000000000000000000
:1001000000000000000000000000000000000000EF
:1001100000000000000000001D2200081D22000851
:1001200000000000000000000000000000000000CF
:1001300000000000000000000000000000000000BF
:100140001D2200081D220008000000001D220008DA
:100150001D2200081D2200081D2200081D22000883
:100160001D2200081D220008000000000000000001
:10017000000000000000000000000000000000007F
:08018000000000001D22000830
:1001900010B5054C237833B9044B13B10448AFF3C1
:1001A00000800123237010BD7000002000000000BB
:1001B000902A000808B5034B1BB103490348AFF36D
:1001C000008008BD0000000074000020902A000894
:1001D00081F0004102E000BF83F0004330B54FEAF8
:1001E00041044FEA430594EA050F08BF90EA020F65
:1001F0001FBF54EA000C55EA020C7FEA645C7FEAF8
:10020000655C00F0E2804FEA5454D4EB5555B8BF1A
:100210006D420CDD2C4480EA020281EA030382EA8B
:10022000000083EA010180EA020281EA0303362D1D
:1002300088BF30BD11F0004F4FEA01314FF4801CF0
:100240004CEA113102D0404261EB410113F0004F02
:100250004FEA03334CEA133302D0524263EB4303B9
:1002600094EA050F00F0A780A4F10104D5F1200E57
:100270000DDB02FA0EFC22FA05F2801841F10001B2
:1002800003FA0EF2801843FA05F359410EE0A5F186
:1002900020050EF1200E012A03FA0EFC28BF4CF0B7
:1002A000020C43FA05F3C01851EBE37101F000456D
:1002B00007D54FF0000EDCF1000C7EEB00006EEB7A
:1002C0000101B1F5801F1BD3B1F5001F0CD3490804
:1002D0005FEA30004FEA3C0C04F101044FEA44525B
:1002E00012F5800F80F09A80BCF1004F08BF5FEAE2
:1002F000500C50F1000041EB045141EA050130BDC2
:100300005FEA4C0C404141EB010111F4801FA4F164
:100310000104E9D191F0000F04BF01460020B1FAB9
:1003200081F308BF2033A3F10B03B3F120020CDAF1
:100330000C3208DD02F1140CC2F10C0201FA0CF0CF
:1003400021FA02F10CE002F11402D8BFC2F1200C34
:1003500001FA02F120FA0CFCDCBF41EA0C019040EA
:10036000E41AA2BF01EB0451294330BD6FEA040433
:100370001F3C1CDA0C340EDC04F11404C4F120021E
:1003800020FA04F001FA02F340EA030021FA04F330
:1003900045EA030130BDC4F10C04C4F1200220FA87
:1003A00002F001FA04F340EA0300294630BD21FAC5
:1003B00004F0294630BD94F0000F83F4801306BF8B
:1003C00081F480110134013D4EE77FEA645C18BF7F
:1003D0007FEA655C29D094EA050F08BF90EA020F16
:1003E00005D054EA000C04BF1946104630BD91EA0E
:1003F000030F1EBF0021002030BD5FEA545C05D111
:100400004000494128BF41F0004130BD14F580044F
:100410003CBF01F5801130BD01F0004545F0FE41C3
:1004200041F470014FF0000030BD7FEA645C1ABFF8
:10043000194610467FEA655C1CBF0B46024650EA2F
:10044000013406BF52EA033591EA030F41F400215B
:1004500030BD00BF90F0000F04BF0021704730B5E1
:100460004FF4806404F132044FF000054FF00001B6
:1004700050E700BF90F0000F04BF0021704730B577
:100480004FF4806404F1320410F0004548BF40424C
:100490004FF000013EE700BF42004FEAE2014FEAA1
:1004A00031014FEA02701FBF12F07F4393F07F4F7C
:1004B00081F06051704732F07F4208BF704793F07F
:1004C0007F4F04BF41F40021704730B54FF4607492
:1004D00001F0004521F000411CE700BF50EA010295
:1004E00008BF704730B54FF000050AE050EA01023E
:1004F00008BF704730B511F0004502D5404261EBAE
:1005000041014FF4806404F132045FEA915C3FF4EE
:10051000D8AE4FF003025FEADC0C18BF03325FEA8B
:10052000DC0C18BF033202EBDC02C2F1200300FA3C
:1005300003FC20FA02F001FA03FE40EA0E0021FA61
:1005400002F11444BDE600BF70B54FF0FF0C4CF44F
:10055000E06C1CEA11541DBF1CEA135594EA0C0F01
:1005600095EA0C0F00F0DEF82C4481EA030621EA3C
:100570004C5123EA4C5350EA013518BF52EA033577
:1005800041F4801143F4801338D0A0FB02CE4FF029
:100590000005E1FB02E506F00042E0FB03E54FF059
:1005A0000006E1FB03569CF0000F18BF4EF0010E51
:1005B000A4F1FF04B6F5007F64F5407404D25FEA4D
:1005C0004E0E6D4146EB060642EAC62141EA555100
:1005D0004FEAC52040EA5E504FEACE2EB4F1FD0C42
:1005E00088BFBCF5E06F1ED8BEF1004F08BF5FEAC0
:1005F000500E50F1000041EB045170BD06F0004672
:1006000046EA010140EA020081EA0301B4EB5C041E
:10061000C2BFD4EB0C0541EA045170BD41F4801116
:100620004FF0000E013C00F3AB8014F1360FDEBF3B
:10063000002001F0004170BDC4F10004203C35DA17
:100640000C341BDC04F11404C4F1200500FA05F39A
:1006500020FA04F001FA05F240EA020001F000423B
:1006600021F0004110EBD37021FA04F642EB0601B1
:100670005EEA430E08BF20EAD37070BDC4F10C04DB
:10068000C4F1200500FA04F320FA05F001FA04F29F
:1006900040EA020001F0004110EBD37041F100018B
:1006A0005EEA430E08BF20EAD37070BDC4F1200596
:1006B00000FA05F24EEA020E20FA04F301FA05F2FE
:1006C00043EA020321FA04F001F0004121FA04F2A6
:1006D00020EA020000EBD3705EEA430E08BF20EA76
:1006E000D37070BD94F0000F0FD101F000464000B0
:1006F00041EB010111F4801F08BF013CF7D041EA32
:10070000060195F0000F18BF704703F00046520035
:1007100043EB030313F4801F08BF013DF7D043EA06
:100720000603704794EA0C0F0CEA135518BF95EABC
:100730000C0F0CD050EA410618BF52EA4306D1D143
:1007400081EA030101F000414FF0000070BD50EA62
:10075000410606BF1046194652EA430619D094EAEC
:100760000C0F02D150EA013613D195EA0C0F05D1D6
:1007700052EA03361CBF104619460AD181EA03012A
:1007800001F0004141F0FE4141F470014FF00000E2
:1007900070BD41F0FE4141F4780170BD70B54FF07D
:1007A000FF0C4CF4E06C1CEA11541DBF1CEA1355FD
:1007B00094EA0C0F95EA0C0F00F0A7F8A4EB0504DF
:1007C00081EA030E52EA03354FEA013100F08880D6
:1007D0004FEA03334FF0805545EA131343EA12639F
:1007E0004FEA022245EA111545EA10654FEA002654
:1007F0000EF000419D4208BF964244F1FD0404F50D
:10080000407402D25B084FEA3202B61A65EB030568
:100810005B084FEA32024FF480104FF4002CB6EB25
:10082000020E75EB030E22BFB61A754640EA0C00A5
:100830005B084FEA3202B6EB020E75EB030E22BFE5
:10084000B61A754640EA5C005B084FEA3202B6EB26
:10085000020E75EB030E22BFB61A754640EA9C00E5
:100860005B084FEA3202B6EB020E75EB030E22BFB5
:10087000B61A754640EADC0055EA060E18D04FEA73
:10088000051545EA16754FEA06164FEAC30343EA13
:1008900052734FEAC2025FEA1C1CC0D111F4801FE0
:1008A0000BD141EA00014FF000004FF0004CB6E7D9
:1008B00011F4801F04BF01430020B4F1FD0C88BF78
:1008C000BCF5E06F3FF6AFAEB5EB030C04BFB6EB83
:1008D000020C5FEA500C50F1000041EB045170BD76
:1008E0000EF0004E4EEA113114EB5C04C2BFD4EBA3
:1008F0000C0541EA045170BD41F480114FF0000E27
:10090000013C90E645EA060E8DE60CEA135594EAA2
:100910000C0F08BF95EA0C0F3FF43BAF94EA0C0FA5
:100920000AD150EA01347FF434AF95EA0C0F7FF41A
:1009300025AF104619462CE795EA0C0F06D152EA6E
:1009400003353FF4FDAE1046194622E750EA410652
:1009500018BF52EA43067FF4C5AE50EA41047FF463
:100960000DAF52EA43057FF4EBAE12E74FEA4102C6
:10097000B2F1E04324BFB3F5001CDCF1FE5C0DD9FD
:1009800001F0004C4FEAC0024CEA5070B2F1004F47
:1009900040EB830008BF20F00100704711F0804F4A
:1009A00021D113F13872BCBF01F00040704741F40F
:1009B00080114FEA5252C2F11802C2F1200C10FA13
:1009C0000CF320FA02F018BF40F001004FEAC123F7
:1009D0004FEAD32303FA0CFC40EA0C0023FA02F39B
:1009E0004FEA4303CCE77FEA625307D150EA013371
:1009F0001EBF4FF0FE4040F44000704701F0004041
:100A000040F0FE4040F40000704700BF00000000CE
:100A100001F0FF01102A2BDB10F0070F08D010F8AF
:100A2000013B013A8B422DD010F0070F42B3F6D1B3
:100A3000F0B441EA012141EA014122F007047FF0CC
:100A400000070023F0E80256083C85EA010586EA23
:100A5000010685FA47F5A3FA87F586FA47F6A5FA5F
:100A600087F68EB9EED1F0BC01F0FF0102F007026B
:100A700032B110F8013B013A83EA010313B1F8D116
:100A80000020704701387047002D06BF35460338F7
:100A9000073815F0010F07D1013015F4807F02BF30
:100AA000013015F4C03F0130F0BC0138704700BF81
:100AB00010B504460E4B18784FF47A73B3FBF0F37D
:100AC0000C4A1068B0FBF3F000F094F868B90F2CF2
:100AD00001D901200AE0002221464FF0FF3000F04A
:100AE00055F8034B5C60002000E0012010BD00BF02
:100AF000000000200800002008B5074A136843F0F2
:100B000010031360032000F02FF80020FFF7D0FF40
:100B100001F096FA002008BD00200240034A116847
:100B2000034B1B780B441360704700BF9C000020F0
:100B300000000020014B1868704700BF9C00002097
:100B400038B50446FFF7F6FF0546B4F1FF3F02D083
:100B5000044B1B781C44FFF7EDFF401BA042FAD367
:100B600038BD00BF00000020074AD36823F4E063CB
:100B70001B041B0C000200F4E060184340F0BF604F
:100B800040F40030D060704700ED00E030B4174B07
:100B9000DB68C3F30223C3F10704042C28BF042439
:100BA0001D1D062D18D9033B4FF0FF3505FA04F43F
:100BB00021EA0401994005FA03F322EA03031943E9
:100BC00000280BDB0901C9B200F1604000F561406B
:100BD00080F8001330BC70470023E5E700F00F00F9
:100BE0000901C9B2024B1954F4E700BF00ED00E05F
:100BF00014ED00E00138B0F1807F0AD2064B586056
:100C0000064AF02182F823100020986007221A601B
:100C100070470120704700BF10E000E000ED00E0E9
:100C2000F0B482B0002336E0032400E00024B44096
:100C30003C430235584E46F82540584C2568D4436D
:100C400004EA05064F6817F4803F01D042EA050622
:100C5000524D2E606D6804EA05064F6817F4003F98
:100C600001D042EA05064D4D6E60AD6804EA050606
:100C70004F6817F4801F01D042EA0506474DAE6069
:100C8000ED682C404E6816F4001F01D042EA0504BE
:100C9000424AD46001330A6832FA03F478D001245E
:100CA0009C402240F6D04D68022D01D0122D10D16B
:100CB000DE08083650F826C003F00705AF000F2500
:100CC000BD402CEA050C0D69BD4045EA0C0540F815
:100CD000265006685F000325BD40ED4305EA060C7B
:100CE0004E6806F00306BE4046EA0C0606604E68F3
:100CF00006F1FF3CBCF1010F03D9112E01D0122ED9
:100D000010D1866805EA060CCE68BE4046EA0C069D
:100D10008660466826EA04044E68C6F300169E40C4
:100D200026434660C46825408C68BC402C43C460A0
:100D30004C6814F0805FADD0194CA56945F00105F1
:100D4000A561A46904F001040194019C9D08AE1CF6
:100D5000114C54F8267003F00304A6000F24B4408D
:100D600027EA0407B0F1904F3FF460AF0D4CA0426A
:100D70000AD004F58064A04208D004F58064A04243
:100D80003FF452AF052452E7012450E702244EE716
:100D900002B0F0BC704700BF0000014000040140F9
:100DA00000100240000400480369194201D10020EC
:100DB0007047012070470AB98162704781617047AE
:100DC000002800F0F58270B582B00446036813F085
:100DD000010F3BD0B54B5B6803F00C03042B1ED016
:100DE000B24B5B6803F00C03082B13D06368B3F5B8
:100DF000803F68D0002B40F0928003F1804303F5E0
:100E000004331A6822F480321A601A6822F48022AD
:100E10001A605DE0A54B5B6813F4803FE6D04FF4A9
:100E2000003393FAA3F3A14B19684FF4003393FAFC
:100E3000A3F3B3FA83F303F01F03012202FA03F3CF
:100E40000B4203D06368002B00F0B482236813F0D8
:100E5000020F00F0C680954B5B6813F00C0F00F09A
:100E60009C80924B5B6803F00C03082B00F08F8092
:100E70002369002B00F0F380012292FAA2F3B3FA67
:100E800083F303F1845303F584139B001A60FFF787
:100E900051FE0546022393FAA3F3844B19680223FB
:100EA00093FAA3F3B3FA83F303F01F03012202FAC8
:100EB00003F30B4240F0C480FFF73CFE401B0228C6
:100EC000E8D9032083E2794A136843F4803313603E
:100ED000764AD36A23F00F03A1680B43D362636899
:100EE000002B36D0FFF726FE05464FF4003393FA69
:100EF000A3F36E4B19684FF4003393FAA3F3B3FADC
:100F000083F303F01F03012202FA03F30B429DD186
:100F1000FFF710FE401B6428E7D9032057E2B3F522
:100F2000A02F09D0614B1A6822F480321A601A6827
:100F300022F480221A60CBE703F18043A3F53C330F
:100F40001A6842F480221A601A6842F480321A60E9
:100F5000BEE7FFF7EFFD05464FF4003393FAA3F326
:100F6000524B19684FF4003393FAA3F3B3FA83F3A7
:100F700003F01F03012202FA03F30B423FF466AFB2
:100F8000FFF7D8FD401B6428E6D903201FE2474B3A
:100F90005B6813F4803F7FF46BAF022393FAA3F3F3
:100FA000424B1968022393FAA3F3B3FA83F303F0D5
:100FB0001F03012202FA03F30B4204D02369934278
:100FC00001D0012003E23948036823F0F803616986
:100FD000F82292FAA2F2B2FA82F201FA02F2134372
:100FE0000360236813F0080F00F08C80A369002BC6
:100FF00060D0012191FAA1F2B2FA82F22C4B134493
:101000009B001960FFF796FD0546022393FAA3F2B1
:1010100093FAA3F293FAA3F2244A516A93FAA3F340
:10102000B3FA83F303F01F03012202FA03F30B4226
:1010300068D1FFF77FFD401B0228E6D90320C6E1F7
:101040001A48036823F0F8036169F82292FAA2F2C1
:10105000B2FA82F201FA02F213430360C1E70123FC
:1010600093FAA3F3B3FA83F303F1845303F58413E0
:101070009B0000221A60FFF75DFD0546022393FAEC
:10108000A3F30A4B1968022393FAA3F3B3FA83F389
:1010900003F01F03012202FA03F30B42A1D0FFF772
:1010A00049FD401B0228E9D9032090E100100240CD
:1010B00020819010012292FAA2F2B2FA82F2C04B81
:1010C00013449B0000221A60FFF734FD05460223FB
:1010D00093FAA3F293FAA3F293FAA3F2B94A516AEC
:1010E00093FAA3F3B3FA83F303F01F03012202FA86
:1010F00003F30B4206D0FFF71DFD401B0228E6D983
:10110000032064E1236813F0040F00F0B380AD4BBB
:10111000DB6913F0805F20D1AA4BDA6942F080527C
:10112000DA61DB6903F080530193019B0125A64B33
:101130001B6813F4807F12D0E368012B23D073BBAC
:1011400003F1804303F504331A6A22F001021A62A4
:101150001A6A22F004021A621AE00025E7E79A4AA6
:10116000136843F480731360FFF7E4FC0646964B64
:101170001B6813F4807FDFD1FFF7DCFC801B642841
:10118000F5D9032023E18F4A136A43F00103136268
:10119000E368002B41D0FFF7CDFC06462BE0052B82
:1011A00009D0884B1A6A22F001021A621A6A22F0E8
:1011B00004021A62ECE7834B1A6A42F004021A62D4
:1011C0001A6A42F001021A62E2E77E4B196A0223B0
:1011D00093FAA3F3B3FA83F303F01F03012202FA95
:1011E00003F3194245D1FFF7A5FC801B41F2883378
:1011F000984200F2E180022393FAA3F293FAA3F358
:10120000B3FA83F35B0943F00203022BDDD0022320
:1012100093FAA3F36B4B596AD9E7FFF78BFC0646A9
:1012200015E0684B196A022393FAA3F3B3FA83F328
:1012300003F01F03012202FA03F3194219D0FFF74A
:1012400079FC801B41F28833984200F2B780022378
:1012500093FAA3F293FAA3F3B3FA83F35B0943F08F
:101260000203022BDDD0022393FAA3F3554B596AF4
:10127000D9E7B5BBE369002B00F0A880514A52685A
:1012800002F00C02082A00F0A480022B2FD04FF0AD
:10129000807393FAA3F3B3FA83F303F1845303F552
:1012A00084139B0000221A60FFF744FC04464FF0B1
:1012B000007393FAA3F3434B19684FF0007393FA4A
:1012C000A3F3B3FA83F303F01F03012202FA03F33B
:1012D00019426BD0FFF72EFC001B0228E7D9032030
:1012E00075E0384AD36923F08053D361C2E74FF0E9
:1012F000807393FAA3F3B3FA83F303F1845303F5F2
:1013000084139B0000221A60FFF714FC05464FF07F
:10131000007393FAA3F32B4B19684FF0007393FA01
:10132000A3F3B3FA83F303F01F03012202FA03F3DA
:10133000194206D0FFF7FEFB401B0228E7D9032025
:1013400045E020494B6823F47413626A206A024323
:1013500013434B604FF0807393FAA3F3B3FA83F314
:1013600003F1845303F584139B0001221A60FFF7F5
:10137000E1FB04464FF0007393FAA3F3114B196895
:101380004FF0007393FAA3F3B3FA83F303F01F0350
:10139000012202FA03F3194206D1FFF7CBFB001B2F
:1013A0000228E7D9032012E0002010E000200EE020
:1013B0000120704701200AE0032008E0032006E036
:1013C000208190100010024000700040002002B008
:1013D00070BD0120FBE700BF10B4174B5C6804F040
:1013E0000C03082B26D104F470124FF4701393FAF7
:1013F000A3F3B3FA83F322FA03F31049C85C0E4B4C
:10140000DB6A03F00F030F2292FAA2F2B2FA82F221
:10141000D3400B441A7C14F4803F05D1084B03FBE6
:1014200000F05DF8044B7047064BB3FBF2F300FB92
:1014300003F0F6E70348F4E700100240A82A00088A
:1014400000093D0000127A00002800F0C08070B54D
:101450000446614B1B6803F007038B420CD25E4AC3
:10146000136823F007030B431360136803F00703AB
:101470008B4201D0012070BD236813F0020F06D00B
:10148000564A536823F0F003A068034353600D46A7
:10149000236813F0010F5AD06368012B2DD0022B63
:1014A00040D0022292FAA2F24C4A1068022292FA2A
:1014B000A2F2B2FA82F202F01F02012101FA02F254
:1014C000104200F0868045494A6822F00302134327
:1014D0004B60FFF72FFB0646404B5B6803F00C03A5
:1014E0006268B3EB820F32D0FFF724FB801B41F21E
:1014F00088339842F0D90320BDE74FF4003292FAC6
:10150000A2F2364A10684FF4003292FAA2F2B2FA0E
:1015100082F202F01F02012101FA02F20242D2D14C
:101520000120A8E74FF0007292FAA2F22B4A10684D
:101530004FF0007292FAA2F2B2FA82F202F01F02A7
:10154000012101FA02F21042BDD1012093E7224BA2
:101550001B6803F00703AB420CD91F4A136823F042
:1015600007032B431360136803F00703AB4201D05A
:10157000012080E7236813F0040F06D0174A536850
:1015800023F4E063E1680B435360236813F0080F12
:1015900007D0124A536823F46053216943EAC10318
:1015A0005360FFF719FF0D4B5B6803F0F003F02267
:1015B00092FAA2F2B2FA82F2D340094AD35CD8403E
:1015C000084B18600020FFF773FA002053E7012052
:1015D000704701204FE700BF00200240001002408A
:1015E000C82A000808000020014B1868704700BF97
:1015F0000800002008B5FFF7F7FF074B5B6803F40E
:10160000E0634FF4E06292FAA2F2B2FA82F2D340BF
:10161000024AD35CD84008BD00100240D82A000816
:1016200008B5FFF7E1FF074B5B6803F460534FF425
:10163000605292FAA2F2B2FA82F2D340024AD35C2A
:10164000D84008BD00100240D82A000810B4036A30
:10165000046A24F001040462846924F0F00444EA7A
:10166000021223F00A030B43826103625DF8044B0C
:10167000704710B4036A23F0100303628469036A9D
:1016800024F4704444EA023223F0A00343EA011335
:10169000826103625DF8044B7047836823F0700336
:1016A00041F0070119438160704700000368224A36
:1016B000904206D0B0F1804F03D0A2F59432904210
:1016C00003D123F070034A6813431B4A904212D09F
:1016D000B0F1804F0FD0A2F5943290420BD002F5BA
:1016E0009E32904207D002F58062904203D002F50C
:1016F0008062904203D123F44073CA68134323F0FD
:1017000080034A69134303608B68C3620B6883627A
:10171000094B98420BD003F5A053984207D003F52C
:101720008063984203D003F58063984201D10B692E
:101730000363012343617047002C0140A8B110B539
:10174000044690F83D305BB1022384F83D30211D02
:101750002068FFF7ABFF012384F83D30002010BD67
:1017600080F83C3000F08AFCEEE70120704710B4AE
:10177000846824F47F4442EA03230B4323438360B9
:101780005DF8044B7047000090F83C30012B00F0EE
:10179000828010B50446012380F83C30022380F893
:1017A0003D30026890683D4B034093600B68402BCE
:1017B0005DD010D9702B40D01FD8502B4DD0602B4E
:1017C00034D1CA6849682068FFF753FF6021206858
:1017D000FFF763FF2AE0102B53D008D9202B55D0F8
:1017E000302B23D130212068FFF757FF1EE0EBB9E3
:1017F00000212068FFF751FF18E0B3F5805F0ED09D
:10180000B3F5005F12D1CB684A6889682068FFF79A
:10181000AEFF2268936843F48043936006E0226839
:10182000936823F4803323F007039360012384F843
:101830003D30002084F83C0010BDCB684A688968C0
:101840002068FFF794FF2268936823F4803323F025
:10185000770343F077039360E8E7CA684968206834
:10186000FFF7F4FE50212068FFF717FFDEE7CA6894
:1018700049682068FFF7EAFE40212068FFF70DFF66
:10188000D4E710212068FFF708FFCFE72021206868
:10189000FFF703FFCAE70220704700BF8800FEFF82
:1018A00090F83C30012B1FD030B4012380F83C303D
:1018B0000268536895680D4CA24210D023F0700363
:1018C0000C68234325F08004896821435360036832
:1018D0009960002380F83C30184630BC704723F4F0
:1018E00070034C682343E9E702207047002C014055
:1018F00010B5044683680269134342691343C26901
:10190000134301680868654A024013430B6022686C
:10191000536823F44053E1680B435360A369226A80
:101920001A4321688B6823F4306313438B60236868
:101930005B4A934215D05B4A934229D002F58062FC
:10194000934221D01022E169B1F5004F22D0082A3C
:1019500000F2A280DFE802F066727EA08AA0A0A05A
:10196000960002F55842126B02F00302032A09D8CE
:10197000DFE802F00204060C0022E4E70422E2E7BA
:101980000822E0E71022DEE70022DCE70222DAE7A5
:101990000022D8E7082A42D8DFE802F005172241E2
:1019A0002D4141413800FFF725FE6268530803EBE3
:1019B0004003B3FBF2F39BB2002023F00F02C3F30A
:1019C000420313432268D36010BDFFF729FE62680B
:1019D000530803EB4003B3FBF2F39BB20020ECE7A8
:1019E0006268530803F5740303F51053B3FBF2F375
:1019F0009BB20020E1E7FFF7EFFC6268530803EBBE
:101A00004003B3FBF2F39BB20020D6E762685308B1
:101A100003F58033B3FBF2F39BB20020CDE7012046
:101A20000023CAE7FFF7E6FD636800EB5300B0FB55
:101A3000F3F0236880B2D8600020C5E7FFF7F0FD1F
:101A4000636800EB5300B0FBF3F0236880B2D8600A
:101A50000020B9E761684A0802F5F40202F59052E5
:101A6000B2FBF1F292B2DA600020ADE7FFF7B4FC0E
:101A7000636800EB5300B0FBF3F0236880B2D860DA
:101A80000020A1E761684A0802F50042B2FBF1F2CA
:101A900092B2DA60002097E7012095E7F369FFEF43
:101AA0000038014000440040436A13F0010F06D0A3
:101AB0000268536823F40033816A0B435360436A1E
:101AC00013F0020F06D00268536823F48033C16A12
:101AD0000B435360436A13F0040F06D00268536847
:101AE00023F48023016B0B435360436A13F0080F08
:101AF00006D00268536823F40043416B0B435360E4
:101B0000436A13F0100F06D00268936823F48053E1
:101B1000816B0B439360436A13F0200F06D0026879
:101B2000936823F40053C16B0B439360436A13F033
:101B3000400F0AD00268536823F48013016C0B43F2
:101B40005360036CB3F5801F0BD0436A13F0800F12
:101B500006D00268536823F40023816C0B43536062
:101B600070470268536823F4C003416C0B43536011
:101B7000EBE72DE9F04105460F4616469846069CD0
:101B80002B68DB6937EA03030CBF01230023B34250
:101B90001DD1B4F1FF3FF3D02CB1FEF7CBFFA0EB8A
:101BA0000800A042ECD92A68136823F4D0731360AC
:101BB0002A68936823F001039360202385F8693035
:101BC00085F86A30002385F86830032000E00020A3
:101BD000BDE8F0812DE9F04182B01E4690F86930F1
:101BE000DBB2202B4ED104460D46904600294ED044
:101BF000002A4ED090F86830012B4CD0012380F899
:101C000068300023C366212380F86930FEF792FF15
:101C10000746A4F85080A4F8528003E023682A788D
:101C20001A850135B4F852309BB2DBB1B4F85230AA
:101C3000013B9BB2A4F8523000963B460022802123
:101C40002046FFF796FF40BBA368B3F5805FE5D160
:101C50002369002BE2D1226835F8023BC3F3080365
:101C60001385DFE700963B46002240212046FFF720
:101C700080FF034698B9202284F86920002284F866
:101C8000682000E00223184602B0BDE8F08101237D
:101C9000F9E70123F7E70223F5E70323F3E703233B
:101CA000F1E730B583B004460023C366FEF742FF78
:101CB000054623681B6813F0080F0ED123681B68C4
:101CC00013F0040F17D1202384F8693084F86A30A8
:101CD000002084F8680003B030BD6FF07E430093AD
:101CE000034600224FF400112046FFF742FF002870
:101CF000E4D00320EFE76FF07E4300932B460022F1
:101D00004FF480012046FFF734FF0028DBD003208A
:101D1000E1E778B310B5044690F869300BB324239B
:101D200084F869302268136823F0010313602046A9
:101D3000FFF7DEFD012813D0636ABBB92268536840
:101D400023F4904353602268936823F02A0393603E
:101D50002268136843F0010313602046FFF7A1FFD8
:101D600010BD80F8683000F09FF9D8E72046FFF7F3
:101D70009BFEE3E70120704710B58AB0002405946C
:101D80000694079408940994264B5A6942F4002259
:101D90005A615A6902F400220192019A5A6942F486
:101DA00080025A615A6902F480020292029A5A69C8
:101DB00042F400325A615A6902F400320392039AE3
:101DC0005A6942F480225A615B6903F480230493C8
:101DD000049B22464FF490714FF09040FEF7EBFFCA
:101DE0004FF400530593104B0693079405A90F4831
:101DF000FEF716FF4FF490730593012306930794A3
:101E0000089405A94FF09040FEF70AFF4FF40073C5
:101E100005930694079405A94FF09040FEF700FF44
:101E20000AB010BD00100240000021100008004858
:101E300008B50948094B03604FF41643436000237B
:101E40008360C36003610C2242618361C3610362EA
:101E50004362FFF75EFF08BDE4000020004400403D
:101E600030B589B000240494059406940794019435
:101E7000029403940D4D0E4B2B603F236B60AC60BE
:101E8000EC602C616C61AC612846FFF757FC4FF4A5
:101E90008053049304A92846FFF776FC0194039429
:101EA00001A92846FFF7FCFC09B030BDA0000020C6
:101EB0000040014030B591B02022002107A800F079
:101EC000D9F9002401940294039404940594022502
:101ED000069501230A9310230B930D954FF460137D
:101EE0000F9306A8FEF76CFF0F230193029503944E
:101EF0004FF4806304930594294601A8FFF7A4FAE0
:101F000011B030BD012817D901380C4BD86201221D
:101F10005A611A6922F001021A611A6842F001023C
:101F20001A60064B1B6913F0010FFAD0034A1369BC
:101F300023F00103136170470220E5E700400140F0
:101F400010B584B0FEF7D8FDFFF7B4FFFFF714FF1C
:101F5000FFF76EFFFFF784FF3AE001340220FFF73E
:101F6000D1FF4FF400714FF09040FEF71DFF0128A4
:101F7000F3D007EE904AF8EE677A9FED2D7A77EE70
:101F8000877A17EE900AFEF787FA25A3D3E9002394
:101F9000FEF7DAFA24A3D3E90023FEF7D5FAFEF719
:101FA000E5FC07EE900A234B1860FDEEE77A17EE8A
:101FB000902A2149684600F065F94FF4FA7382B21D
:101FC00069461E48FFF706FE4FF47A70FEF7B8FD2B
:101FD00000224FF480714FF09040FEF7ECFE03209A
:101FE000FFF790FF01224FF480714FF09040FEF711
:101FF000E2FE0A20FFF786FF00224FF480714FF0C7
:102000009040FEF7D8FE4FF400714FF09040FEF77D
:10201000CBFE0028F7D00024A3E700BFAFF3008079
:10202000666666666666064000000000C58F913FE2
:1020300000000000E0000020E02A0008E40000208A
:1020400000B583B00C4B9A6942F001029A619A691B
:1020500002F001020092009ADA6942F08052DA61DD
:10206000DB6903F080530193019B0720FEF77CFDA1
:1020700003B05DF804FB00BF001002400268094B8A
:102080009A4200D0704782B003F550439A6942F4F7
:1020900080329A619B6903F480330193019B02B003
:1020A000704700BF0040014000B589B00023039392
:1020B00004930593069307930268144B9A4202D047
:1020C00009B05DF804FB03F5E633DA6942F4003247
:1020D000DA61DA6902F400320192019A5A6942F433
:1020E00000325A615B6903F400330293029B0C23B4
:1020F000039302230493032306930723079303A95F
:102100004FF09040FEF78CFDDAE700BF004400403E
:102110007047FEE7FEE7FEE7FEE77047704770474F
:1021200008B5FEF7FBFC08BD08B503460B4A12686C
:1021300042B10A4A106803446A46934206D8074AE5
:10214000136008BD054A06491160F2E700F068F81F
:102150000C2303604FF0FF30F3E700BF8C0000203A
:10216000580100201549D1F8883043F47003C1F8B4
:102170008830134B1A6842F001021A605868114AFD
:1021800002405A601A6822F0847222F480321A6087
:102190001A6822F480221A605A6822F4FE025A60F9
:1021A000DA6A22F00F02DA62186B074A02401A63F9
:1021B00000229A604FF000638B60704700ED00E0F2
:1021C000001002400CC07FF8CCFC00FFDFF834D0D8
:1021D000002103E00C4B5B58435004310B480C4B7F
:1021E00042189A42F6D30B4A02E0002342F8043B1D
:1021F000094B9A42F9D3FFF7B5FF00F017F8FFF744
:102200009FFEFEE700300020242B00080000002085
:10221000700000207000002058010020FEE7000040
:10222000014B1868704700BF0C00002070B50D4EC0
:102230000D4CA41BA4100025A54209D10B4E0C4C3B
:1022400000F026FCA41BA4100025A54205D170BDFA
:1022500056F8253098470135EEE756F8253098476F
:102260000135F2E71C2B00081C2B00081C2B000872
:10227000202B000802440346934200D1704703F824
:10228000011BF9E70EB400B59CB01DAB029006909F
:102290006FF00041094807910491094953F8042B54
:1022A00005910068019302A900F066F8029B0022E4
:1022B0001A701CB05DF804EB03B070470C000020EE
:1022C0000802FFFF2DE9F0478E689E4282460C46C9
:1022D0009046994637D88A8912F4906F31D0256894
:1022E00009696F1A6569022305EB450595FBF3F54E
:1022F00009F101033B449D4238BF1D46530530D5CB
:10230000294600F02BFB064650B90C23CAF80030D2
:10231000A38943F04003A3814FF0FF30BDE8F0876D
:102320003A46216900F0A8FAA38923F4906343F0A8
:102330008003A381266165613E44ED1B2660A56094
:102340004E464E4500D94E4632464146206800F082
:102350009EFAA3689B1BA36023681E44266000208E
:10236000DCE72A4600F054FB06460028E2D121694A
:10237000504600F0A5FAC8E72DE9F04F1D468B89BD
:102380001F069DB080460C4616460FD50B696BB9EB
:10239000402100F0E3FA2060206128B90C23C8F83E
:1023A00000304FF0FF30C8E0402363610023099301
:1023B00020238DF8293030238DF82A3003954FF0F3
:1023C000010B37463D4615F8013B0BB1252B3ED19D
:1023D000B7EB060A0BD05346324621464046FFF77C
:1023E00071FF013000F0A480099B534409933B78AE
:1023F000002B00F09D8000234FF0FF32CDE9052334
:10240000049307938DF853301A932F46052217F83B
:10241000011B5048FEF7FCFA049BD0B9D90644BF13
:1024200020228DF853201A0744BF2B228DF8532009
:102430002A782A2A15D0079A2F4600200A253946DD
:1024400011F8013B303B092B4DD9B8B10FE02F46B5
:10245000B8E7404A801A0BFA00F0184304903D4652
:10246000D3E7039A111D12680391002A01DB07923A
:1024700004E0524243F00203079204933B782E2B70
:102480000CD17B782A2B33D1039B1A1D1B68039236
:10249000002BB8BF4FF0FF33023705932E4D39782C
:1024A00003222846FEF7B4FA38B14023401B03FA52
:1024B00000F0049B034301370493397827488DF8D3
:1024C000281006227E1CFEF7A3FA002838D0244BE1
:1024D00013BB039B073323F0070308330393099BC4
:1024E0004B4409936DE705FB023201200F46A6E736
:1024F00000230137059319460A25384610F8012BA9
:10250000303A092A03D9002BC8D00591C6E705FB4C
:10251000012101230746F0E703AB00932246114B4C
:1025200004A94046AFF30080B0F1FF3F8146D6D109
:10253000A3895B063FF535AF09981DB0BDE8F08F64
:1025400003AB00932246074B04A9404600F082F8F3
:10255000EAE700BFE82A0008EE2A0008F22A00088D
:1025600000000000C52200082DE9F04791461F46F3
:102570008A680B69DDF820809342B8BF1346C9F81A
:10258000003091F8432006460C4612B10133C9F8D9
:1025900000302368990642BFD9F800300233C9F8E9
:1025A0000030256815F0060507D104F1190AE36823
:1025B000D9F800209B1AAB4228DC94F843302268FB
:1025C000003318BF012392062DD404F1430239468B
:1025D0003046C047013020D02368E568D9F8002094
:1025E00003F00603042B08BFAD1AA36822690CBFD1
:1025F00025EAE57500259342C4BF9B1AED184FF0FC
:1026000000091A344D451AD1002008E00123524632
:1026100039463046C047013003D14FF0FF30BDE8A6
:10262000F0870135C3E7E1185A1C302081F84300D8
:10263000224494F8451082F843100233C5E7012381
:10264000224639463046C0470130E6D009F101093B
:10265000D8E700002DE9F04301F1430C0C46097E58
:1026600085B06E291746064698460C9A00F0B3804E
:1026700022D8632936D00AD8002900F0B980582919
:1026800000F0838004F1420584F8421032E06429AE
:1026900001D06929F6D120681368050603F1040109
:1026A0002AD51B681160002B03DA2D225B4284F8C7
:1026B00043206F480A2239E0732900F09D8008D832
:1026C0006F2920D07029DDD1236843F020032360D7
:1026D00003E0752917D07829D4D1782384F84530C0
:1026E000644855E01368191D1B68116004F1420528
:1026F00084F8423001238CE01B68116010F0400F19
:1027000018BF1BB2CFE713682568181D1060280694
:1027100001D51B6802E06806FBD51B8854486F2969
:1027200014BF0A220822002184F843106568A560BE
:10273000002DC0F29580216821F004012160002B5A
:102740003DD1002D40F08E806546082A0BD12368CC
:10275000DB0708D5236962689A42DEBF302305F89B
:10276000013C05F1FF35ACEB05032361CDF800809A
:102770003B4603AA21463046FFF7F6FE01304DD115
:102780004FF0FF3005B0BDE8F083394884F84510BC
:10279000136821681D1D1B6815600A060BD5CA0742
:1027A00044BF41F0200121601BB9226822F02002C1
:1027B00022601022B7E74D0648BF9BB2EFE765469F
:1027C000B3FBF2F102FB1133C35C05F8013D0B468C
:1027D0000029F5D1B9E7136825686169181D1060F3
:1027E00028061B6801D5196002E06A06FBD519802E
:1027F000002323616546B9E71368191D11601D6840
:10280000626800212846FEF703F908B1401B6060AA
:1028100063682361002384F84330A7E723692A46CD
:1028200039463046C0470130AAD023689B0713D4ED
:10283000E068039B9842B8BF1846A3E701234A46C5
:1028400039463046C04701309AD00135E368039AD3
:102850009B1AAB42F2DCEBE7002504F11909F5E71E
:10286000002BACD1037884F8423004F142056CE7C8
:10287000F92A00080A2B000810B5431E0A449142A9
:1028800000D110BD11F8014B03F8014FF7E7884262
:1028900010B501EB020307D8421E99420AD011F885
:1028A000014B02F8014FF8E78342F5D98118D21A9B
:1028B000D34200D110BD13F8014D01F8014DF7E7E7
:1028C00038B50546002945D051F8043C0C1F002BB3
:1028D000B8BFE41800F0D2F81F4A1368104633B9A5
:1028E000636014602846BDE8384000F0C8B8A342D1
:1028F0000CD921686218934204BF1A685B68636050
:1029000004BF521822600460ECE713465A680AB10B
:10291000A242FAD919685818A0420BD12068014484
:10292000581882421960DDD1106852685A6001441B
:102930001960D7E702D90C232B60D3E72068211850
:102940008A4204BF11685268626004BF091821609E
:102950005C60C7E738BD00BF9400002070B5CD1C97
:1029600025F0030508350C2D38BF0C25002D064633
:1029700001DBA94203D90C233360002070BD00F0B5
:102980007DF8214A1468214691B9204C23681BB96F
:10299000304600F063F820602946304600F05EF8CB
:1029A000431C24D10C233360304600F068F8E4E780
:1029B0000B685B1B18D40B2B0FD90B60CD50CC18B8
:1029C000304600F05CF804F10B00231D20F00700F6
:1029D000C31AD3D05A42E250D0E78C424B6816BF9C
:1029E000636013600C46EBE70C464968CCE7C41CF7
:1029F00024F00304A04205D0211A304600F02EF83E
:102A00000130CFD02560DBE7940000209800002043
:102A1000F8B5074614460E4621B91146BDE8F84000
:102A2000FFF79CBF22B9FFF74BFF25462846F8BDAC
:102A300000F026F8A0420FD221463846FFF78EFF5D
:102A400005460028F2D031462246FFF715FF3146F1
:102A50003846FFF735FFE9E73546E7E738B5064C76
:102A60000023054608462360FFF75EFB431C02D1A6
:102A7000236803B12B6038BD5401002070477047B4
:102A800051F8043C181F002BBCBF0B58C0187047EE
:102A9000F8B500BFF8BC08BC9E467047F8B500BF4B
:082AA000F8BC08BC9E4670471B
:102AA80002030405060708090A0B0C0D0E0F101087
:102AB8000102030405060708090A0B0C0D0E0F1086
:102AC80000000000000000000102030406070809D6
:102AD80000000000010203042564200A0000000031
:102AE800232D302B2000686C4C00656667454647EF
:102AF8000030313233343536373839414243444572
:102B080046003031323334353637383961626364E0
:042B180065660000EE
:042B1C00B5010008F7
:042B20009101000817
:102B2400010000001000000000127A0010000020D4
:102B34000000000000000000000000000000000091
:102B44000000000000000000000000000000000081
:102B54000000000000000000000000000000000071
:102B64000000000000000000000000000000000061
:102B74000000000000000000000000000000000051
:102B84000000000000000000000000000000000041
:04000005080021CD01
:00000001FF
